:020000040800F2
:10000000C8070020650100088B0100088D01000869
:1000100000000000000000000000000000000000E0
:100020000000000000000000000000008F01000838
:10003000000000000000000091010008930100088A
:100040009501000895010008950100089501000838
:100050009501000895010008950100089501000828
:100060009501000895010008950100089501000818
:100070009501000895010008950100087516000813
:100080009501000800000000000000009501000834
:1000900000000000950100085116000895010008B5
:1000A0000000000095010008950100089501000876
:1000B0009501000800000000950100089501000866
:1000C00000F002F800F03EF80CA030C80838241800
:1000D0002D18A246671EAB4654465D46AC4201D180
:1000E00000F030F87E460F3E0FCCB6460126334274
:1000F00000D0FB1AA246AB4633431847342B00000E
:10010000542B0000103A02D378C878C1FAD85207AD
:1001100001D330C830C101D504680C6070470000BD
:100120000023002400250026103A01D378C1FBD813
:10013000520700D330C100D50B6070471FB51FBDFB
:1001400010B510BD01F01CF81146FFF7F7FF01F0E4
:1001500043FD01F034F803B4FFF7F2FF03BC01F0F4
:1001600037F800000F4880F308880F480168090E2F
:100170000E4A914205D10E480E4901600E480F49C2
:1001800001600F4880470F480047FEE7FEE7FEE7A3
:10019000FEE7FEE7FEE700000B480C490C4A0D4B5A
:1001A00070470000C8070020040000001F00000086
:1001B0001810024001000000000001400000000093
:1001C000DD150008C1000008C8010020C807002094
:1001D000C8030020C8030020002203098B422CD34F
:1001E000030A8B4211D300239C464EE003460B4387
:1001F0003CD4002243088B4231D303098B421CD3E9
:10020000030A8B4201D394463FE0C3098B4201D3DA
:10021000CB01C01A524183098B4201D38B01C01A12
:10022000524143098B4201D34B01C01A5241030989
:100230008B4201D30B01C01A5241C3088B4201D338
:10024000CB00C01A524183088B4201D38B00C01AE5
:10025000524143088B4201D34B00C01A5241411A0C
:1002600000D201465241104670475DE0CA0F00D0EF
:100270004942031000D34042534000229C460309E8
:100280008B422DD3030A8B4212D3FC22890112BA6E
:10029000030A8B420CD3890192118B4208D3890146
:1002A00092118B4204D389013AD0921100E089095E
:1002B000C3098B4201D3CB01C01A524183098B423F
:1002C00001D38B01C01A524143098B4201D34B0128
:1002D000C01A524103098B4201D30B01C01A52418B
:1002E000C3088B4201D3CB00C01A524183088B4212
:1002F00001D38B00C01A5241D9D243088B4201D39B
:100300004B00C01A5241411A00D201466346524185
:100310005B10104601D34042002B00D54942704784
:1003200063465B1000D3404201B50020C046C04682
:1003300002BD7047704770470246C80FC00781432F
:100340004B0030B54B405B009B0D20D01923DB06E2
:10035000C91801231B05994220DB0324A4070425A7
:100360001346AB400BD3002B04D1EB0613409B008C
:10037000E34204D401246407002312195941FF23E6
:100380001B0599420BD2C9000143500F09E0CB0273
:1003900004D501430803024305D0054830BDFF21C1
:1003A000C905084330BD084607210905884330BD0B
:1003B0000000C07FF0B50C46871A9C410D46861A96
:1003C0009D4103D2C01BA141D21963410D0D1F0DE8
:1003D000C94EEC1BAE435CD07F057F0D0026002F7D
:1003E00051D02D05AC46A943DD020123ED0A1B05C2
:1003F0001D4320231B1B24D41746E74038187141A6
:100400002F46E740CC199D402818314661410C0D1C
:1004100027D161449A4013D50023401C5941520012
:100420000ED14008400001224B005205D34207D3B1
:1004300005204007C14201D5B04900E0B04930462F
:10044000F0BD6B00002A00D001229A181F23203C27
:100450001B1B01D5002302E0E540281871410C0D5B
:10046000D7D0012424050919C407CD07400849083D
:10047000E40F28436144002CD5D00024401C614186
:100480009A40D0D1CDE76A05520DD9D1C90FC9071D
:10049000D5E79C4D4E00002801D0012400E0002447
:1004A00034195F00002A01D0012600E00026BE19A1
:1004B000954FAC420CD8AE420AD8B44206D00125C2
:1004C0006D05EC42BCD010461946F0BD9942FCD0F7
:1004D00000203946F0BDF0B51FB40C460F46811A16
:1004E0009F412546861A9D4106D20125ED076F40A2
:1004F000401ABC4152187B41210D1E0D8D1BAC468C
:100500007D4D8D437ED075056D0D7CD00D05AE46BD
:10051000AC431B031B0B794D52429D412023664681
:100520009B1B14D31746F7403818002600907441DF
:1005300060462F460741E41900989D4028186641FF
:1005400016D4714671189A4025D5012320E09318DE
:100550002A466A415200002B00D0521C1E23203E26
:100560009B1B002B61DD3541EE1728186641E8D54D
:10057000001876415B1C9A4000D3401C4B05F318D1
:100580001524E34010D3002B52D071467118D30FBD
:10059000C01802D3491C05B0F0BD0123DB079A4205
:1005A000F9D140084000F6E701225205B21801D106
:1005B000002853D00123CC0ADB029943891E002A6C
:1005C00008D1020C03D0020C0004103902E00246EC
:1005D000002020390023550B05D112020823550BAA
:1005E00001D152010D23550C01D112011B1DD50C57
:1005F00001D192009B1C150D01D152005B1C2025DE
:10060000EE1A01E02CE022E00546F5401543984043
:10061000CA1AE10769181305C918002ABBDA0320B2
:1006200040070818C10FC9070FE071466118B2E70B
:10063000F10740080843711071444A000CD00123AF
:100640005B059A42A7D2C90FC9070020A3E7490555
:10065000490D26D1002001E00028F4D100219AE7BD
:10066000284D6600002801D0012100E0002171180A
:100670005F00002A01D0012600E00026BE19224FAB
:10068000A94210D8AE420ED8B14208D001256D055E
:10069000E94206D01946A802414010467BE79C4239
:1006A00001D0214677E70020394674E710B50C46A3
:1006B0005C4005D50124E4076340FFF70CFF10BD43
:1006C000FFF778FE10BD30B40C465C4004D5012421
:1006D000E407634030BC6DE630BCFCE670B5012435
:1006E000E40761400D465D4002D4FFF763FE70BD34
:1006F0006340FFF7F0FE70BDFF0700000000F0FF51
:100700000000F07F0000E0FF0000F87FF0B5F94D39
:100710000C091E092C402E402F468BB0A7437DD0DC
:10072000B543FCD0002E7AD0002CFCD00D465D40A5
:10073000ED0F2543AC1BFF25AD0464190894C502D9
:10074000440DC9022143500DDC0204430120C007BF
:1007500001430443D2020191200C110C00958C46F8
:10076000010423468B430A9161460904E24D8A4302
:100770000991010A7D4449198039097805464D439C
:1007800001266D18F605751B6943C90C640B891C9D
:100790004C436418B5012C1B250C2E04B4434C4368
:1007A0004D43210C691889090591009DE90701D085
:1007B0000121C90704912C4601996708CD072F43F1
:1007C0004C08059DE10B4D432D0C294666467543AB
:1007D00002950D4645432E46029D7D1BB441009572
:1007E0000D465D4301942C0C2F040D465543AE4637
:1007F0002D0C3D43029503947546049C2D04641B07
:10080000049406D2029C039D641C00267541039546
:10081000029401AC70CC009F7D1B01E03EE162E1DF
:10082000B44109040095079101940599A408614316
:10083000090C0C464443650BE7040C4666467443BA
:10084000A646640B3C43039502947446049DE4045D
:100850002C1B049406D2029C039D641C0026754147
:100860000395029401AC70CC009F7D1BB4410194B0
:100870000C465C430095650FE7000C465443A646C2
:10088000640F3C43039502947446049DE4002C1BC2
:10089000049406D2029C039D641C002675410395B6
:1008A000029401AC70CC009F7D1BB441AE09AF0631
:1008B000049DC900AD092F43049DA406AD0604950F
:1008C000079D344369180791059DE10B4D432D0C9D
:1008D00029466646754302950D4645432E46029DC0
:1008E0007D1BB44100950D465D4301942C0C2F04F3
:1008F0000D465543AE462D0C3D4302950394754677
:10090000049C2D04641B049406D2029C039D641C69
:10091000002675410395029401AC70CC009F7D1BAD
:10092000B44101948C050694079C890A61180095CE
:100930000791019C0599A4086143090C0D464543A4
:10094000680BEF040D46644665436C0B3C43049F03
:10095000ED047D1BAC4602D20025641C6841009E5C
:10096000019D371B85410846584301950C46460FAB
:10097000C5005443600F28436546E4002C1B02D297
:100980000025401C6E41019D3F1AB5412846BD0916
:10099000800628438446A009BF064E020699A40695
:1009A00076180743079D002068410A99079019436C
:1009B0000020099B00906046FF1913434041E20F5D
:1009C00064003A43A4460446D71A8C41A04203D996
:1009D0000120009020463A46C70F941840416246D5
:1009E000D20F2243644664000494009CBE46640017
:1009F000D71AA446044602978C417746002F01D1AE
:100A0000A04204D96046401C8446029A2046C40F86
:100A1000A64694184041049A0546D20F22436446E4
:100A20006400D31A8D417146002901D1A84202D930
:100A300028461A46641C10430122002800D01643A1
:100A400061020020079B891904465C410223002CA7
:100A500002DB491813466441089DCE0A2D145D1926
:100A60004B056705E10A2C050D1908993E43C90796
:100A70006940002B08D0934006D30022761C5141D8
:100A8000002B01D1760876001C4A002D43DB15426D
:100A900041D0AA433FD030460BB0F0BD06180D46FA
:100AA0004D41174C7642AC411AD395181C465C4117
:100AB000134A6D42A24113D3012252054C00D44285
:100AC0000AD15C00D4420BD04B4002D592021143B4
:100AD000E2E749004908DFE75940C90FC90718E0B4
:100AE00000200849D8E7054801420DD10342F7D05C
:100AF000F2E700000000FF075E2300000000F07F27
:100B00000000E0FF0000F87F114859400143C01287
:100B100041400020C0E70123089A9B069A4205DC69
:100B2000032252078918C90FC907B5E705225207E2
:100B30008918074A1143D2125140ADE770B51546E6
:100B40001C4602460B4628462146FFF7DFFD70BDD6
:100B5000FFFFFF7FF0B58B4C0F09254689B0BD43E1
:100B60007BD01D092646AE43FAD00E465E40274094
:100B7000F60F3E43254071D024012142FBD0FF24D3
:100B8000AD19A4042D1B039501252D05DB02DB0AFD
:100B9000C9022B43C90A29431E010901040F130F7F
:100BA000050121431701880B820391432D098C46CF
:100BB000A90B1E438A039543B30B9A0396433F093F
:100BC000BA0B9403A74302962E467E430497B6467B
:100BD0004E19D7190C460196544305977E43371B8F
:100BE0007646BF1B3601B646BE0B361900967646D2
:100BF000BC043719009C01D3641C00946400002FCE
:100C000001D001263443029E049F754366467E430D
:100C10000496760034196E0034190094029C019EEB
:100C20001C196643751BAE46069465464519059C1E
:100C300005956C43594375460891691A0191049EC4
:100C400001465143A41B0491611A009C0791E106DF
:100C500005D061090122114302E072E06EE06109F2
:100C6000089D00272C0A2D066918049D7C412A0A3C
:100C70002D066918019D6241AC0DAD026D185441FD
:100C8000079A910D920255196141029A64465843A0
:100C90005443069B059A5A43121A131B9A0E9B0142
:100CA0005B187A41010B0005C3185141220A200646
:100CB00044195A419A4200D2491C01204002814203
:100CC00003D315230226F64302E014230326F6433A
:100CD0002020C51AA9401746AF40DA400A432046F3
:100CE0000399D8400914731819055118039A384309
:100CF000D2075140AC4009D00122944006D30022D3
:100D0000401C5141002C01D1400840001E4A934232
:100D100012D3012203989206904207DB0520400778
:100D200009181A480143C012414004E0032040075B
:100D30000818C10FC907002009B0F0BD0020F10755
:100D4000FAE705180C464C4111486D42A04115D3F5
:100D500094181A465A410E48644290410ED301201D
:100D60004A004005824209D35A00824206D35940C4
:100D7000C90F084AC90700201143DDE700200649D2
:100D8000DAE700000000FF07FE070000FFFFFF7F1B
:100D90000000E0FF0000F07F0000F87F0121C9059E
:100DA0000123411842001B06D3185B0E0AD0C11064
:100DB0000722D206891840075242D14201D552007B
:100DC00089187047090208D50146002A03D0C10FCF
:100DD000C9070020704710467047420202D0002029
:100DE00002497047072109050143F4E70000F87F35
:100DF000F0B5FF252D04C609C209FF2704462E4081
:100E00000137CB093E4348402A402B400746002A81
:100E10006BD0002B69D0AA4267D0AB4265D00028C6
:100E200000DA32460125ED0529432C430902200250
:100E3000090AD21A4B0C7F24E31A434C000A7C4463
:100E4000E35C7D242404121914145B00A218884268
:100E500001D3521C00E0400049420C465C4324117F
:100E60005C43DB016415E318040A5C43C502200DF2
:100E70000C4644436419250A5D432303EC0C0D46DC
:100E8000654300030019EB184C42A34201D35B18E1
:100E9000401CD4052018002B07D05B00C91804D3D0
:100EA000401C002901D1400840003F2189048A42AA
:100EB00009D3002A08DC1106090F04D003214907D1
:100EC0004018C00FC007F0BD01224100120689186A
:100ED0007F2252069142F6D205214907C84201D528
:100EE0009010F0BDFF20C005F0BD002F00DA3246A3
:100EF0001648AA4207D2AB4205D21902090E17D0F2
:100F0000F80FC007F0BDFF2563002D06AB42F9D8EE
:100F10004900A942F6D8AB4201D1A942F2D0A94278
:100F200001D1002101E061004908D0050843F0BD6E
:100F30001102090EFBD0FF200243D005F0BD0A4686
:100F40000146104654E70000141D00000000C07F59
:100F500010B501469E240002CA15A307002A02D03C
:100F60001843002A04DBA21A002A0CDDD04010BD71
:100F70001206120E01D140004008A21A03D4D0403C
:100F800040420028F3DDFF2248001206904201D9BA
:100F9000002010BDC817C043584010BD1F22030CCD
:100FA00002D10F2200041CD0030E01D10002083A26
:100FB000030F01D10001121F830F01D18000921E87
:100FC000002801DB4000521ED205511802125118B0
:100FD0001922904004D3491C002801D14908490036
:100FE00008467047C10FC90700D04042012292074E
:100FF0001143D3E701218907D0E710B500F0B8F815
:10100000006810BD10B5044600F0B2F8046010BDD1
:1010100070B505464800440D124B0020002C0AD044
:10102000634008D09A4206DA6642B24203DD1205F6
:101030004019514170BD002C08D0002B09D0C90FB8
:10104000C907002AF6DB084A114370BDC90FC9075A
:1010500070BD28460A03104302D00020034970BD2A
:10106000284670BDFF0700000000F07F0000F87FF9
:10107000F0B53D4B02460C461C400020002C63D0CE
:101080003A4D8B4366D000296BDB0B0D1D05A94340
:1010900001252D0529430124FD33E34001D3921896
:1010A0004941FF3381339C468B02940D0121234338
:1010B00089074C42920200271B198C105D1A04D438
:1010C0002D1B02D42B466500491992185B41640818
:1010D000F4D15C1A08D40125ED07EE1755197441B7
:1010E00002D42A462346491C94185B4101229207E8
:1010F0001D46E61B8D4106D4B61A854103D42B4606
:10110000550034467F1924195B415208802AEFD1DB
:10111000234300D0022338460A22D04001D30122C3
:1011200013438A0510436246890A12058918002B69
:1011300009D00122D34002D30022401C5141002B90
:1011400001D140084000F0BD0B03134307D0C90F85
:10115000C907F0BD0803104303D1002901DB104685
:10116000F0BD00202946F0BD0000F07F0000F87FB0
:101170000048704764010020004870476401002067
:101180007546FFF7F9FFAE46050069465346C008AD
:10119000C000854618B020B5FEF7FEFF60BC0027F2
:1011A0004908B6460026C0C5C0C5C0C5C0C5C0C533
:1011B000C0C5C0C5C0C5403D49008D46704710B58B
:1011C0000446C046C0462046FEF7C5FF10BD0000DD
:1011D00001491820ABBEFEE726000200704700B5AB
:1011E0000346802000F044F8184600F041F800BDA6
:1011F00000BF0D4880690121C90308400028F8D1CB
:10120000094840680949084007494860084640685D
:10121000074908430449486000BF034880694021EA
:1012200008400028F9D17047005400400078FFFFC3
:101230007820FF0000BF0D488069C007C00F00285C
:10124000F9D00A48406801218903084307494860EA
:1012500000BF06488069202108400028F9D00348D3
:10126000C06908430149C86170470000005400404C
:1012700000BF08498969C907C90F0029F9D0054984
:10128000886200BF03498969402211400029F9D1D1
:10129000704700000054004070B506460C46FFF74A
:1012A000A7FF4020FFF7E4FF00231DE03046203871
:1012B00081004018C0180F490D5C002C04D0E94390
:1012C000C8B2FFF7D5FF02E02846FFF7D1FF042B95
:1012D00008D1002C03D0FF20FFF7CAFF02E0002056
:1012E000FFF7C6FF581CC3B2052BDFDBFFF7A2FFD9
:1012F00070BD00007626000830B5002417E0FFF727
:1013000077FF2020FFF76BFF0020FFF768FF4020EA
:10131000FFF7AEFF002504E00020FFF7A9FF681CDF
:10132000C5B2802DF8DBFFF785FF601CC4B2082C26
:10133000E5DB30BD30B504460D46FFF759FF0F2CF5
:1013400006DD2111102211430846FFF748FF02E095
:101350001020FFF744FF2007000FFFF740FFB021E8
:1013600029430846FFF73BFFFFF764FF30BD00004D
:1013700010B5FFF73DFFAE20FFF731FF002405E079
:101380000549085DFFF72BFF601CC4B2122CF7D98A
:10139000FFF750FF10BD000064260008F3B585B0CC
:1013A00006460124002700200190002E01DB35466F
:1013B00002E075420120019000BF0A2D0ED30A21E0
:1013C0002846FEF709FF0F463846303002A9085577
:1013D0000A212846FEF700FF054604E02846303083
:1013E00002A908550025601CC4B2002DE5D1019862
:1013F000002803D02D2002A9085501E0601EC4B2C8
:1014000000BF02A9085D0699FFF746FF601EC4B23F
:10141000002CF6D107B0F0BD30B504460D4604E00F
:1014200020782946FFF738FF641C20780028F7D180
:1014300030BDF0B5064614461D46752000F0EEFEA0
:101440000746682F00D0F0BD00216B2000F0A8FFF8
:101450000721304600F087F82146304600F058F862
:101460002946304600F088F800BFECE7F0B585B0BB
:1014700004460E2269463B2000F02AFE68460078AA
:10148000010268464078014308B2A081684680782E
:1014900001026846C078014308B2E08168460079DD
:1014A000010268464079014308B22082684680798B
:1014B00001026846C07901430DB22846FFF792FD4C
:1014C00007461149FFF794FC0646104900F0C4FF97
:1014D000A0616846007A01026846407A014308B27A
:1014E00060826846807A01026846C07A014308B289
:1014F000A0826846007B00026946497B084300B22F
:10150000E08205B0F0BD00000000AA43B81E124200
:1015100070B504460D461C2000F080FEE72108400F
:10152000E9000843C6B231461C2000F039FF002D07
:1015300006D0012D08D0022D0AD0032D10D10BE0CA
:101540007120C005A0600CE039200006A06008E012
:101550007320C005A06004E01D204006A06000BF0D
:1015600000BF00BF70BD30B505460C4621461920AE
:1015700000F016FF30BD000070B504460D461B207C
:1015800000F04CFE06463046E7210840E9000843DB
:10159000C6B231461B2000F003FF002D06D0012DFE
:1015A00007D0022D08D0032D0CD108E00748606059
:1015B00009E00748606006E00648606003E006480E
:1015C000606000BF00BF00BF70BD00002D23FA3B6C
:1015D0002D237A3C90C1F93C90C1793D19480068AF
:1015E0000121084317490860084640681649084029
:1015F00014494860084600681449084011490860C9
:10160000084600680121890488430E49086008469D
:1016100040683F21090488430A4948600846C06A77
:1016200000090001C8620846006BFF21D4318843DD
:10163000044908630846406B4008400048630020A6
:1016400088607047001002400CB8FF08FFFFF6FEEC
:1016500000B507480069C007C00F002807D000F098
:101660000DF803480069400840000149086100BDC9
:101670000048014001208007006970471048008839
:10168000002804D00E480088401E0D4908800D48EF
:10169000008800280ED1FF20F5300A4908800A484A
:1016A0004069012148400849486108480088401CB9
:1016B0000649088003480088401E02490880704798
:1016C000040000200600002000040048080000205C
:1016D0004900CA020243100000D004204A0D01D084
:1016E00001221043044A490D914201D102210843CD
:1016F000012800D105207047FF07000010B5002821
:1017000019DB1A4A03231B02D21883089B00D25804
:101710008307DC0EFF23A3409A438B071B0E84072D
:10172000E40EA3401A43114B032424021B1984081E
:10173000A4001A5118E00E4A03071B0F083B9B0830
:101740009B00D2588307DC0EFF23A3409A438B07EC
:101750001B0E8407E40EA3401A43054B0407240F15
:10176000083CA408A4001A5110BD000000E100E0EC
:101770001CED00E0F8B504464F1EC80008382118DB
:1017800015461E46086849683A4606239A4310D013
:101790002A463346FFF7DEF93A46D200083AA31844
:1017A0001A687F1E5B68FEF781FF06223B46934363
:1017B000EED1022F23D0042F11D0062F2FD12A468D
:1017C0003346FFF7C7F9E36AA26AFEF76FFF2A46BE
:1017D0003346FFF7BFF9636A226AFEF767FF2A46BE
:1017E0003346FFF7B7F9E369A269FEF75FFF2A46C0
:1017F0003346FFF7AFF963692269FEF757FF2A46C0
:101800003346FFF7A7F9E368A268FEF74FFF2A46C1
:101810003346FFF79FF963682268FEF747FFF8BD7C
:1018200010B50122FFF7F4FB10BD0000034A10B50C
:1018300000201107FFF7ECFB10BD000001FDFFFFCA
:10184000F0B589B004460D4648000691724940083B
:10185000884215DB7149884203DC884207D1002C9D
:1018600005D020462946FFF7DBFF09B0F0BD6C48E4
:10187000002D02DD6B4909B0F0BD6B4909B0F0BD28
:101880006A49884211DA6A4988420BDA20462946B9
:10189000FFF71EFF042801D1FFF7C8FF20462946A5
:1018A00009B0F0BD0026F6435DE06D0061496D08AA
:1018B000884232DA6049884219DA0026012332462A
:1018C0009B0720462946FEF7F1FE074601910122BB
:1018D00020462946FFF79CFB0022584BFEF7F3FEFB
:1018E0003A46019BFEF712FF04460D463BE00126F7
:1018F0000022524B20462946FEF7D8FE07460091AB
:1019000000224E4B20462946FEF7DDFE3A46009B5C
:10191000FEF7FCFE04460D4625E04949884219DAE7
:1019200002260022474B20462946FFF713F90022E2
:10193000424BFEF7BBFE074602910022414B204678
:101940002946FEF7C0FE3A46029BFEF7DFFE04463C
:101950000D4608E0032622462B4600203A49FEF7B2
:10196000D5FE04460D4622462B4610461946FFF783
:10197000F1F807460B4602460191FFF7EBF80246E5
:10198000029032480B46039106217844FFF7F2FE9D
:101990003A46019BFFF7DEF800902D4801910521A2
:1019A0007844039B029AFFF7E5FE039B029AFFF738
:1019B000D1F802460B4601990098002E0BDAFEF78B
:1019C00075FE22462B46FFF7C5F822462B46FEF74A
:1019D00085FE09B0F0BDFEF769FE22462B46FFF7F3
:1019E000B9F81C4AF6007A4493191A685B68FEF746
:1019F0006AFE22462B46FEF766FE174A7A44931982
:101A00001A685B68FEF76AFE069A002AE1DA01228C
:101A1000D207514009B0F0BD000010440000F07F33
:101A2000182D4454FB21F93FFB21F9BF0000DC3F96
:101A30000000203E0000F33F0000E63F0000F03FC2
:101A4000008003400000F83F0000F0BF7212000069
:101A500034120000CE1100009811000003490880E4
:101A600000BF024909880029FBD17047040000200B
:101A700010B5524880690121890408434F498861A3
:101A80004F48504988620120C86208460068912189
:101A900008434C4908600846C06801210843494989
:101AA000C8601620002809DB00BF00BFC206D20EA6
:101AB00001219140444A116000BF00BF00BF0521D1
:101AC0001620FFF71BFE3D484069012189040843A9
:101AD0003A4948613D480068012108433B49086094
:101AE000364840690903084334494861384800686A
:101AF0000A21084336490860084680680F210843D8
:101B000033498860084640680321084330494860EB
:101B10000846006A112108432D4908622748C06918
:101B20000121490508432549C8612A480069294916
:101B300008610846006909210843264908610846EA
:101B40000069032109020843224908610846006927
:101B50000121090408431F4908610846006903215F
:101B6000090508431B490861084640680321C9026A
:101B70008843184948600846006801210843154910
:101B800008600E4840690121490408430B49486137
:101B90000920C0060068042108430921C90608601D
:101BA000084600688008800008600846C068022176
:101BB00008430921C906C86010BD0000001002409A
:101BC0003F1F00000048014000E100E00004004821
:101BD000001400480054004090B0FFF749FFC820AF
:101BE000FFF73CFFFFF7C4FBFFF786FB0021052052
:101BF000FFF7A0FB0121D1A0FFF70EFC00231A463E
:101C00001946D248FFF715FC96E1D1480088002814
:101C1000FAD00020CE490880CC48FFF727FC00F01E
:101C2000D7F900F015FACB480068FFF7B7F80D9127
:101C30000C90C9480168006800F054FC0290C74845
:101C40000168006800F04EFC0190029900F004FC6D
:101C50000390FFF7A3F80591049000F07DFB079136
:101C60000690BF480068FFF799F80646079B069A5A
:101C7000FEF74CFD0446FFF7E3FD0022B94B099146
:101C80000890FEF767FF0B910A900D9B0C9AFEF7E8
:101C90003DFD0F910E90FEF74FFBB3490860AD4834
:101CA0000068FFF77BF80D910C90AB480168006865
:101CB00000F018FC0290AA480168006800F012FCCD
:101CC0000190029900F0C8FB0390FFF767F8064601
:101CD00000F042FB07910690A0480068FFF75EF80D
:101CE00005910490079B069AFEF710FD0991089054
:101CF000FFF7A6FD044600229A4BFEF72BFF0B913F
:101D00000A900D9B0C9AFEF701FD0F910E90FEF7C5
:101D100013FB964908608F480068FFF73FF80D9164
:101D20000C908D480168006800F0DCFB07468C4889
:101D30000168006800F0D6FB3946019000F08CFB8A
:101D40000446FFF72BF8054600F006FB05910490CA
:101D500081480068FFF722F803910290059B049ADE
:101D6000FEF7D4FC07910690FFF76AFD00227D4B39
:101D700009910890FEF7EEFE0B910A900D9B0C9ACC
:101D8000FEF7C4FC0F910E90FEF7D6FA7849086072
:101D900001210846FFF7CEFA002176A0FFF73CFBB1
:101DA0006A498869FFF7D4F804460021FFF7F6FA7C
:101DB000002172A0FFF730FB02210120FFF7BAFAE1
:101DC000002170A0FFF728FB6F496548006800F00C
:101DD00089FB0546FFF7BCF804460021FFF7DEFA51
:101DE00000216AA0FFF718FB02214020FFF7A2FAAA
:101DF000002168A0FFF710FB67480068FFF7A8F80C
:101E000004460021FFF7CAFA002160A0FFF704FB97
:101E100003210120FFF78EFA002160A0FFF7FCFAF2
:101E200059494E48006800F05DFB0546FFF790F801
:101E300004460021FFF7B2FA002154A0FFF7ECFAA4
:101E400003214020FFF776FA002155A0FFF7E4FABE
:101E500054480068FFF77CF804460021FFF79EFA1B
:101E600000214AA0FFF7D8FA04210120FFF762FA07
:101E700000214DA0FFF7D0FA43493748006800F031
:101E800031FB0546FFF764F804460021FFF786FAA8
:101E900000213EA0FFF7C0FA04214020FFF74AFAD4
:101EA000002142A0FFF7B8FA41480068FFF750F858
:101EB00004460021FFF772FA002134A0FFF7ACFAC4
:101EC00005210120FFF736FA00213AA0FFF7A4FA16
:101ED00025480068FFF73CF804460021FFF75EFA4A
:101EE000002136A0FFF798FA06210120FFF722FA19
:101EF000002133A0FFF790FA1C480068FFF728F88C
:101F000004460021FFF74AFA00212CA0FFF784FACB
:101F100007210120FFF70EFA00212BA0FFF77CFA22
:101F200013480068FFF714F804460021FFF736FA5B
:101F3000002122A0FFF770FA67E600002054455305
:101F400054204D505536303530200000C40000205C
:101F500008000020A8000020180000201400002025
:101F60001000002000806640300000203400002077
:101F70003800002054656D702E3A20002043202048
:101F800020000000615820000000B44220202020E2
:101F900000000000675820001C000020615920004C
:101FA0006759200020000020615A2000675A200055
:101FB0002400002050697463682000002020000085
:101FC000526F6C6C20000000596177200000000007
:101FD00010B5184A0C21515E174A12688818FFF78D
:101FE00001F8044613488168204600F07BFA134943
:101FF0000860104A0E21515E114A12688818FEF7D7
:10200000F1FF04460B488168204600F06BFA0D4949
:102010000860084A1021515E0B4A12688818FEF7C2
:10202000E1FF044603488168204600F05BFA074957
:10203000086010BDC4000020AC000020100000208B
:10204000B000002014000020B40000201800002080
:1020500010B5184A1221515E174A12688818FEF707
:10206000C1FF044613484168204600F03BFA13497B
:102070000860104A1421515E114A12688818FEF750
:10208000B1FF04460B484168204600F02BFA0D4989
:102090000860084A1621515E0B4A12688818FEF73C
:1020A000A1FF044603484168204600F01BFA074997
:1020B000086010BDC4000020B80000201C000020F3
:1020C000BC00002020000020C000002024000020D0
:1020D00030B500BF4C4B9B690124E4032340002B27
:1020E000F8D1494B5B68494C2340474C6360234619
:1020F0005B68474C2343444C636000BF424B9B6981
:1021000040242340002BF9D100BF3F4B9B69DB07E4
:10211000DB0F002BF9D03C4B986200BF3A4B9B6918
:1021200040242340002BF9D100BF374B9B69DB07CC
:10213000DB0F002BF9D0344B5B680124A40323434D
:10214000314C636000BF304B9B6920242340002B3F
:10215000F9D02D4BDB6923432B4CE36100BF2A4BA5
:102160009B690124E4032340002BF8D1264B5B68D4
:10217000284C2340244C636023465B68241523438A
:10218000214C636023465C681304234D2B431C439E
:102190001D4B5C6000BF1C4B9B6940242340002BFF
:1021A000F9D10AE000BF184B9B6904242340002B9F
:1021B000F9D0154B5B6A0B70491C1346541EE2B2F2
:1021C000002BEFDC00BF104B9B69DB07DB0F002B04
:1021D000F9D00D4B5B680124A40323430A4C6360D0
:1021E00000BF094B9B6920242340002BF9D0064BEC
:1021F000DB692343044CE36123465B682124A4028A
:10220000A343014C636030BD0054004000F800FF60
:10221000D020FF0000FC00FFD0200000014600BFDE
:10222000484A92690123DB031A40002AF8D1454A43
:102230005268454B1A40434B5A601A465268434B0A
:102240001A43404B5A6000BF3E4A926940231A40ED
:10225000002AF9D100BF3B4A9269D207D20F002A67
:10226000F9D0384A916200BF364A926940231A4039
:10227000002AF9D100BF334A9269D207D20F002A4F
:10228000F9D0304A526801239B031A432D4B5A6000
:1022900000BF2C4A926920231A40002AF9D0294A0B
:1022A000D2691A43274BDA6100BF264A926901239B
:1022B000DB031A40002AF8D1224A5268244B1A4004
:1022C000204B5A601A4652681B151A431D4B5A6020
:1022D0001A4652681F4B1A431A4B5A6000BF194ADC
:1022E000926940231A40002AF9D100BF154A926929
:1022F00004231A40002AF9D0124A526AD0B200BF11
:10230000104A9269D207D20F002AF9D00D4A5268BA
:1023100001239B031A430B4B5A6000BF094A926981
:1023200020231A40002AF9D0064AD2691A43054BE5
:10233000DA611A46526821239B029A43014B5A6084
:10234000704700000054004000F800FFD0208000DB
:1023500000FC00FFD0200100F8B506460C46FEF751
:1023600087FE051E0F4600D00120014349000B489F
:102370004908411AC90F0DD0002E01D0012100E0FB
:1023800000210C4361004908401AC00F02D101200E
:10239000FEF738FE28463946F8BD00000000F07F01
:1023A00000BF2A4A92690123DB031A40002AF8D1B0
:1023B000264A5268264B1A40244B5A601A465268E5
:1023C000244B1A43214B5A6000BF204A9269402394
:1023D0001A40002AF9D100BF1C4A9269D207D20FD5
:1023E000002AF9D0194A906200BF184A9269402326
:1023F0001A40002AF9D100BF144A9269D207D20FBD
:10240000002AF9D0114A916200BF104A9269402314
:102410001A40002AF9D100BF0C4A9269D207D20FA4
:10242000002AF9D0094A526801239B031A43074B3B
:102430005A6000BF054A926920231A40002AF9D049
:10244000024AD2691A43014BDA61704700540040D6
:1024500000F800FFD020800070B501250400ED07D2
:102460004C4020D4441A01D2001B0919C60D4B0060
:10247000F2B2FF2A29D01B0E2CD000020C02D31A74
:102480002C43DC402843051910D2280A02D3401CF3
:102490006D0611D0761EF6058019FF2A00DA70BD90
:1024A000C00DC00570BD694000F07AF801200543F9
:1024B000C541521C761CE8E764089C40C901614094
:1024C0008900E7D10124A043E4E71B0E440200D0B9
:1024D000034870BD002AFCD1C00FC00770BD00BF0B
:1024E0000000C07F70B5420064414B005C41120E99
:1024F00039D01B0E38D0FF2A3CD0FF2B3AD04002F7
:102500004902400A490A060045184E43000A090AD2
:10251000D2184843ED017F3A0104731A4019190C8F
:102520004318990F04D001215B0849075B1A521C1C
:10253000D80904D3401CF50301D19D0607D0FF2A1A
:1025400008D2D50506D0E4072043401970BD012507
:10255000A843F4E7002A01DCE00770BD2402FF2055
:102560002043C00570BD1B0EFF2A03D0FF2B01D0F6
:10257000E00770BDFF2645003606B54206D84D007F
:10258000B54203D8D218FF2A00D0E7E7004870BD53
:102590000000C07F70B501250400ED074C4022D437
:1025A000441A02D26C40001B0919C60D4B00F2B24E
:1025B000FF2A4BD01B0E50D000020C02D31A2C4322
:1025C000DC40A843051B05D5AD0019D36D08761E68
:1025D000521E37D0F605280A01D2801970BD70410D
:1025E0006D0603D070BD6940FFF73CFF9C400902B7
:1025F0006140490001D0401E70BD0124A04370BD60
:102600006D081DD001202B0C01D12D0410302B0E94
:1026100001D12D0208302B0F01D12D01001DAB0F70
:1026200001D1AD00801CEB0F01D16D00401C6D008D
:10263000361A121A680AF5054019012A02DB70BD24
:10264000002070BDC036300AC00770BD1B0E4402AA
:1026500001D1FF2B00D1024870BD002AF0D070BD1F
:102660000000C07FA83FD30040A1C8DA12817FA438
:10267000A6D5808D14AF000000000000002F0000E0
:102680000007000700147F147F14242A7F2A12C435
:10269000C810264636495522500005030000001C8C
:1026A0002241000041221C0014083E081408083E84
:1026B000080800005030001010101010006060007A
:1026C0000020100804023E5149453E00427F400070
:1026D00042615149462141454B311814127F102760
:1026E000454545393C4A4949300171090503364998
:1026F000494936064949291E00363600000056363B
:10270000000008142241001414141414004122146F
:10271000080201510906324959513E7E1111117EBC
:102720007F494949363E414141227F4141221C7F38
:10273000494949417F090909013E4149497A7F08D0
:1027400008087F00417F41002040413F017F08147D
:1027500022417F404040407F020C027F7F040810EE
:102760007F3E4141413E7F090909063E4151215EBC
:102770007F09192946464949493101017F01013F35
:102780004040403F1F2040201F3F4038403F6314DF
:1027900008146307087008076151494543007F41E9
:1027A0004100552A552A550041417F00040201028B
:1027B000044040404040000102040020545454783A
:1027C0007F484444383844444420384444487F389F
:1027D00054545418087E0901020C5252523E7F088C
:1027E00004047800447D40002040443D007F1028D0
:1027F000440000417F40007C041804787C080404F5
:102800007838444444387C14141408081414187C90
:102810007C080404084854545420043F4440203C9D
:102820004040207C1C2040201C3C4030403C442840
:102830001028440C5050503C4464544C440008361A
:10284000410000007F000000413608000402040837
:102850000400000000000000000000000000000074
:102860000000000000000000000000000000000068
:102870000000000000000000000000000000000058
:102880000000000000000000000000000000000048
:102890000000000000000000000000000000000038
:1028A0000000000000000000000000000000000028
:1028B0000000000000000000000000000000000018
:1028C0000000000000000000000000000000000008
:1028D00000000000000000000000000000000000F8
:1028E00000000000000000000000000000000000E8
:1028F00000000000000000000000000000000000D8
:1029000000000000000000000000000000000000C7
:102910000000000000003600000000000000000081
:1029200000000000000000003E494949220000006C
:102930000000000000000000000000000000000097
:102940000044457C454400000000000000000000F9
:1029500000417F410000447D400000000000000075
:102960000000000000000000000000000000000067
:10297000000000000000000038544428000000005F
:102980000000000000000000000000000000000047
:10299000004A487A40407E1111117E7F49494931F1
:1029A0007F494949367F01010103603E21217F7F34
:1029B0004949494163147F146322494949367F10CC
:1029C00008047F7F1009047F7F081422417C0201E4
:1029D000017F7F020C027F7F0808087F3E41414152
:1029E0003E7F0101017F7F090909063E41414122E5
:1029F00001017F0101074848483F1C227F221C63D8
:102A0000140814633F20203F60070808087F7F40B8
:102A10007F407F3F203F207F017F4848307F4848EC
:102A2000307F7F48484830224949493E7F083E412F
:102A30003E462919097F2054545478785454542020
:102A40007C545454287C04040400603824386038D2
:102A5000545454186C107C106C28445454283C4036
:102A600040207C3C4042207C7C10102844601008B0
:102A7000047C7C0810087C7C1010107C3844444492
:102A8000387C0404047C7C14141408384444442026
:102A900004047C04040C5050503C18247C2418443A
:102AA000281028443C20203C600C1010107C7C40F6
:102AB0007C407C3C203C207C047C4848307C483076
:102AC000007C7C4848483028445454387C103844B2
:102AD00038582424247C80807F7E7D7C7B7A7978A2
:102AE000777676757473727171706F6E6E6D6C6CD3
:102AF0006B6A6A6968686766666564646363626175
:102B00006160605F5F5E5E5D5D5C5C5B5B5A5A59F5
:102B10005958585757565655555554545353525261
:102B20005251515050504F4F4F4E4E4D4D4D4C4CB9
:102B30004C4B4B4B4A4A4A49494948484847474702
:102B4000474646464545454444444443434343423F
:102B50004242424141418182838485868788898BB4
:102B60008C8D8E8F919293959697999A9C9D9FA00C
:102B7000A2A3A5A7A8AAACAEB0B2B3B5B7B9BCBE64
:102B8000C0C2C5C7C9CCCED1D4D7D9DCDFE2E6E913
:102B9000ECF0F3F7FAFE00004FBB610567ACDD3FD8
:102BA000182D4454FB21E93F9BF681D20B73EF3F74
:102BB000182D4454FB21F93FE2652F227F2B7A3CEC
:102BC000075C143326A6813CBDCBF07A8807703CA5
:102BD000075C143326A6913CC4EB98999999C9BF18
:102BE000711623FEC671BCBF6D9A74AFF2B0B3BF4D
:102BF0009AFDDE522DDEADBF2F6C6A2C44B4A2BF0D
:102C00000D5555555555D53FFF8300922449C23F78
:102C10006E204CC5CD45B73F513DD0A0660DB13FAC
:102C2000EB0D76244B7BA93F11DA22E33AAD903FBE
:102C3000502C000800000020C4000000040100081F
:102C4000142D0008C4000020040700002001000823
:102C50000000000000000000000000000000000074
:102C60000000000000000000000000000000000064
:102C70000000000000000000000000000000000054
:102C80000000000000000000000000000000000044
:102C90000000000000000000000000000000000034
:102CA0000000000000000000000000000000000024
:102CB0000000000000000000000000000000000014
:102CC0000000000000000000000000000000000004
:102CD000000000000000803F000000000000000035
:102CE00000000000000000000000000000000000E4
:102CF0000000000000000000DB0F49400000000061
:102D000000000000000000000802000000000000B9
:042D100000000000BF
:040000050800016589
:00000001FF
